:020000021000EC
:1000000000000420F9A3050031A40500ED860500D9
:1000100035A40500F9860500FF86050000000000F4
:10002000000000000000000000000000DD1D0200D4
:100030003DA4050000000000771E0200871E02009C
:1000400099E60500B138050043A4050043A4050066
:1000500043A4050043A4050043A4050043A40500F0
:1000600043A4050043A4050043A4050043A40500E0
:1000700043A405002DE8050043A4050045450500FF
:1000800043A4050043A4050043A4050043A40500C0
:1000900043A4050043A4050043A4050043A40500B0
:1000A00043A4050043A4050043A4050043A40500A0
:1000B00043A4050035F4010000000000000000002A
:1000C00043A4050043A4050043A4050043A4050080
:1000D00043A4050043A4050043A4050043A4050070
:1000E00043A4050043A4050043A40500000000004C
:1000F0000000000043A405000000000043A4050028
:1001000010B5054C237833B9044B13B10448AFF351
:1001100000800123237010BD201200200000000089
:10012000641E070008B5034B1BB103490348AFF336
:10013000008008BD0000000024120020641E07009B
:10014000154B002B08BF134B9D46A3F5803A0021A9
:100150008B460F461348144A121A54F069FA0F4B93
:10016000002B00D098470E4B002B00D09847002062
:10017000002104000D000D48002802D00C4849F071
:1001800059F853F04BFD2000290013F0F1FE49F01F
:100190004EF800BF0000080000000420000000002E
:1001A000CD3E0200201200200022012035920500E1
:1001B0000000000010B5034B0360044608F07EFF0A
:1001C000204610BD5881060010B50446FFF7F2FF27
:1001D00020460C2149F04CFA204610BD73B5144B53
:1001E0000344B4299B7EA8BFB421054621EAE174EB
:1001F000E3B1C4F1B4000F4B13F825604FF416734C
:100200000093B4229623002110F050FF002283B205
:100210003146094808F08CFB084B4FF4FA6043F86C
:10022000254002B0BDE8704011F0A4BC2046E2E7D2
:1002300040120020FC9B0600141300202002002026
:1002400010B58B68044611F083FB204610BD0000FA
:1002500008B50649064811F065F8064B00211970EB
:100260000D20BDE8084011F06BBD00BF1B990600D2
:100270007C270020A812002008B5022011F088FD7C
:10028000B0FA80F0400908BDF0B52DED028B83B0C7
:100290000446FFF7F1FF002874D0E0B211F09CFC97
:1002A00007EE900A0E2CB8EEE78A60D15848594AFA
:1002B00003689FED597A594C9FED596A02EB83010F
:1002C00081ED008AD2ED007A77EE877A92ED017A9D
:1002D00077EE877A92ED027A77EE877A92ED037A5B
:1002E00077EE877A92ED047A77EE877AF1EE046AF8
:1002F00087EEA67A0133052193FBF1F101EB810131
:100300005B1A0360D4ED006A77EE667AF5EEC07A88
:10031000F1EE10FAD8BFF1EE677AF4EEC67AF1EE9C
:1003200010FA2ADDDFED3F7AF4EE676AF1EE10FA9B
:1003300023D03D493D4810F0DDFF18EE100A4FF084
:1003400023FF022502460B460095384811F014F9A8
:100350003749364810F0CEFF20684FF015FF009562
:1003600002460B46314811F009F994ED008A18EE67
:10037000100A03B0BDEC028BF0BD84ED007AB0EE44
:10038000478AF4E711F0E2FB4FF0DCFE1AA3D3E951
:1003900000234FF051FF02460B464FF097FD18A384
:1003A000D3E900234FF048FF17A3D3E900234FF010
:1003B00043FF50F011FA4FF0E7FE064620460F4685
:1003C0004FF0D0FE00221B4B4FF036FF02460B468B
:1003D000304639464FF07AFD50F01EFC0022164B95
:1003E0004FF02AFF00224FF081434FF06FFD50F095
:1003F000F3F908EE100ABAE7FCA9F1D24D62503FBA
:10040000182D4454FB2109409A9999999999B93F1B
:10041000401300202C1300200000000018020020D0
:1004200000004843000000447B8506007C27002034
:100430008EC806000000E03F0000694008B50320B8
:1004400011F0A6FCB0FA80F0400908BD00000000E1
:1004500038B52DED028BFFF7F1FF58B1142011F0E4
:10046000BBFB07EE900AF8EEE77ABDEC028B17EEC5
:10047000900A38BD11F06AFB322104466FF031005A
:1004800010F007FE08EE100A20464FF05BFE24A392
:10049000D3E900234FF0D0FE02460B464FF016FD85
:1004A00021A3D3E900234FF0C7FE21A3D3E9002302
:1004B0004FF0C2FE50F0B0FB0022154B4FF0BCFED7
:1004C000F8EEC87A044617EE900A0D464FF05CFE2F
:1004D00002460B46204629464FF0F8FC50F07CF9C6
:1004E000DFED0C7A07EE100A77EE277AF5EEC07A88
:1004F000F1EE10FA09D49FED087AF4EE477AF1EEA6
:1005000010FAC8BFF0EE477AAFE7DFED047AACE748
:10051000000059400000004400C07F44000000007B
:10052000FCA9F1D24D62503F182D4454FB210940E3
:100530009A9999999999A93F2DE9F04F944995482D
:10054000954F964C964EDFF8A8B2DFF8488285B0FA
:1005500010F0E8FE93498F4810F0E4FE92498D4870
:1005600010F0E0FE01233B70002323606360A36072
:10057000E3602361336011F0E9FA8C4981468548D4
:1005800010F0D0FE002511F0E1FA40F6B733A0EBF1
:10059000090098427CD80E20FFF776FED4ED007A51
:1005A00007EE100A77EE877A0F20C4ED007AFFF786
:1005B0006BFED4ED017A07EE100A77EE877A1020F1
:1005C000C4ED017AFFF760FED4ED027A07EE100A5F
:1005D00077EE877A1120C4ED027AFFF755FED4ED4D
:1005E000037A07EE100A77EE877A1520C4ED037AB6
:1005F000FFF74AFED4ED047A07EE100A77EE877A09
:100600000135C4ED047AFFF723FFD6ED007A07EE3B
:10061000100A77EE877A6420C6ED007A11F0A8FA06
:10062000052395FBF3F303EB83039D4203D1594666
:10063000404610F05FFE0A2395FBF3F203FB1252D3
:10064000002AA0D1039211F081FA5949824640460E
:1006500010F050FEAAEB090307EE903ADFED556A61
:10066000F8EE677A87EEA67ADFED537A67EE277A9F
:1006700017EE900A4FF088FD039A00920B4602464F
:10068000404610F079FF4D49404610F04BFE7AE7A6
:1006900007EE905A414BF8EEE77A03F11402D3EDDE
:1006A000006A86EEA77AA3EC017A9A42F7D1D6EDDA
:1006B000006A434B4349374886EEA77A01251D70EF
:1006C00086ED007A10F02EFE3F49324810F02AFEE7
:1006D0003E49304810F00EFE20694FF055FD009560
:1006E00002460B462B4810F049FF3949294810F0C3
:1006F00001FEE0684FF048FD009502460B46254894
:1007000010F03CFF3349234810F0F4FDA0684FF08F
:100710003BFD009502460B461E4810F02FFF2E4968
:100720001C4810F0E7FD60684FF02EFD0095024672
:100730000B46184810F022FF2849164810F0DAFD41
:1007400020684FF021FD009502460B46114810F03D
:1007500015FF23490F4810F0CDFD30684FF014FD10
:10076000009502460B460B4810F008FF1D4909484A
:1007700010F0D8FD1C49074810F0D4FD1B4905486E
:1007800010F0D0FD00233B7005B0BDE8F08F00BF36
:10079000729706007C270020A8120020B8120020C3
:1007A000AC12002096970600C7970600FB9706003C
:1007B000CC87060000803B450000C8421598060023
:1007C000CD120020179806003598060055980600AF
:1007D00064980600739806008298060094980600B4
:1007E000A3980600B1980600E79806000D99060048
:1007F0009B8106002DE9F3475F496048604C614EDC
:10080000DFF8A0815D4F10F08DFD5F495B4810F06F
:1008100089FD5E4B01221A70002323606360A36090
:10082000E3602361336011F091F90025814640F6C1
:10083000B73A11F08BF9A0EB0900504550D80E20C3
:10084000FFF722FDD4ED007A07EE100A77EE877AE3
:100850000F20C4ED007AFFF717FDD4ED017A07EE03
:10086000100A77EE877A1020C4ED017AFFF70CFDAD
:10087000D4ED027A07EE100A77EE877A1120C4EDE4
:10088000027AFFF701FDD4ED037A07EE100A77EE46
:10089000877A1520C4ED037AFFF7F6FCD4ED047ACD
:1008A00007EE100A77EE877A0135C4ED047AFFF778
:1008B000CFFDD6ED007A07EE100A77EE877A642036
:1008C000C6ED007A11F054F9052395FBF3F303EB21
:1008D00083039D42ADD14146384610F00BFDA8E799
:1008E00007EE905A264FF8EEE77A07F114033C46DC
:1008F000D4ED006A86EEA77AA4EC017AA342F7D180
:10090000D6ED006A224B23491C481C4D86EEA77A7F
:1009100001221A704FF0020886ED007A10F002FDF5
:100920001D4916481D4E10F0E5FC57F8040B4FF01A
:100930002BFCCDF8008002460B46284610F01CFE2A
:100940003146284610F0D6FCA742EED114490B4898
:1009500010F0D0FC0F49094810F0E4FC0D4907489D
:1009600010F0E0FC4FF47A7011F002F902B0BDE82B
:10097000F04700F019B800BF908B06007C270020DC
:10098000B8120020AC120020AB8B0600A812002089
:10099000CD120020CD8B0600F18B0600CC8706001F
:1009A000068C06009B81060010B5284C2849236858
:1009B00028480133236010F0B5FC2749254810F082
:1009C00099FC0A222168234810F0F5FC23492148AC
:1009D00010F0A8FC1E491F4810F0A4FC204B1B7807
:1009E0003BB920491B4810F09DFCBDE81040FFF7C3
:1009F00001BF1D4B04221A7011F0A8F81B4B0121F6
:100A000018600D2011F09CF91949124810F08AFC69
:100A10001849104810F086FC17490E4810F082FC67
:100A200016490C4810F07EFC15490A4810F07AFC73
:100A30001449084810F076FC1349064810F072FC7F
:100A400012490448BDE8104010F06CBC8812002028
:100A5000B29106007C270020DB910600EF91060092
:100A6000CD1200200E920600A8120020DC120020F9
:100A700041920600599206006E920600919206007D
:100A8000B3920600D1920600F99206002093060068
:100A900010B5042011F07CF9044611F057F80E4B04
:100AA000B4B91A78B2B90D490A68821AC82A11D99C
:100AB00001221A700A4B08601B781BB9BDE8104070
:100AC000FFF772BF042B05D1BDE81040FFF7C0BB94
:100AD00000221A7010BD00BF92120020D412002014
:100AE000A81200202DE9F3418D498E4810F01AFC20
:100AF0008D498C4810F0FEFB8C4B1B78042B0AD8D8
:100B0000DFE813F005000401060108010A01884925
:100B1000844810F007FC87498248874D874C10F0C5
:100B2000E9FB874B874A1978874B7E48002914BF19
:100B30001146194610F0F6FB84497A4810F0DAFBAA
:100B4000FFF79AFB002814BF29462146754810F08C
:100B5000E9FB7F49734810F0CDFBFFF76FFC0028DD
:100B600014BF294621466F487A4D7B4C10F0DAFBC2
:100B70007A496C4810F0BEFB022011F009F90128F7
:100B80000CBF29462146674810F0CCFB74496548E4
:100B900010F0B0FB032011F0FBF801280CBF294630
:100BA0002146604810F0BEFB6E4B1B78002B00F016
:100BB000B5806D495B4810F09DFB6C4B5948196836
:100BC0000A2210F0F8FB6A49564810F093FB694B73
:100BD000DFED697A93ED007A67EE277A17EE900AD7
:100BE0004FF0D2FA0123009302460B464D4810F015
:100BF000C3FC6249624D4B484A4FDFF8988110F0C0
:100C000091FB2E465F49474810F074FB5E4945480A
:100C100010F070FB0A2216F8041F424810F0E4FBA3
:100C20005A49404810F066FB00240A2236F9021F98
:100C3000384610F0C0FB042C03D04146384610F073
:100C400059FB0134052CF0D151493648354E514FEE
:100C500010F050FB5049334810F04CFB00242B1986
:100C60000A22197C304610F0BFFB042C03D0394611
:100C7000304610F03FFB0134052CF0D1444929489F
:100C8000284E444F10F036FB4449264810F032FB02
:100C900000242B190A22597D304610F0A5FB042CA4
:100CA00003D03946304610F025FB0134052CF0D135
:100CB00037491C4810F036FB39491A4810F01AFB26
:100CC000384B394A1978394B1648002914BF114658
:100CD000194610F00FFB3649124810F00BFB354B4C
:100CE000104819680A2210F066FB33490D4810F0CD
:100CF00001FB324B0B4819680A2210F05EFB3049A9
:100D0000084802B0BDE8F04110F00CBB2D49FFE6E9
:100D10002D49FDE62D49FBE62D49F9E62D4969E708
:100D2000D08C06007C270020E68C0600A81200204C
:100D3000F68C0600338D0600A78C0600B18C0600E9
:100D4000CD1200208D8C0600988C0600488D060080
:100D5000598D0600BB8C0600C08C0600668D06000F
:100D6000868D0600CC1200209C8D0600A412002067
:100D7000B08D0600A01200200000C842BF8D060002
:100D800040120020E28D0600FA8D0600088E060053
:100D9000108E0600CC870600128E0600198E060003
:100DA000208E06008C170020C48C0600CB8C060019
:100DB0002B8E060098170020338E0600600200205C
:100DC000C5910600FB8C0600078D0600178D0600F6
:100DD000208D0600C28D060010B5534C53492046A5
:100DE00010F0A0FA5249204610F09CFA51492046D2
:100DF00010F098FA5049204610F094FA4F492046D6
:100E000010F090FA4E49204610F08CFA4D492046D9
:100E100010F088FA4C49204610F084FA4B492046DD
:100E200010F080FA4A49204610F07CFA49492046E1
:100E300010F078FA4849204610F074FA47492046E5
:100E400010F070FA4649204610F06CFA45492046E9
:100E500010F068FA4449204610F064FA43492046ED
:100E600010F060FA4249204610F05CFA41492046F1
:100E700010F058FA4049204610F054FA3F492046F5
:100E800010F050FA3E49204610F04CFA3D492046F9
:100E900010F048FA3C49204610F044FA3B492046FD
:100EA00010F040FA3A49204610F03CFA3949204601
:100EB00010F038FA3849204610F034FA3749204605
:100EC00010F030FA3649204610F02CFA3549204609
:100ED00010F028FA3449204610F024FA334920460D
:100EE00010F020FA3249204610F01CFA3149204611
:100EF00010F018FA3049204610F014FA2F49204615
:100F000010F010FA2E49204610F00CFA2D49204618
:100F100010F008FA2C49204610F004FA20462B491C
:100F2000BDE8104010F0FEB97C270020D2870600F3
:100F3000E7870600EE870600F5870600FE870600B5
:100F40000688060012880600198806002088060018
:100F50002A88060033880600408806004B88060071
:100F6000558806007C880600A8880600D9880600F7
:100F7000068906002B890600588906007E8906002E
:100F8000A3890600CC890600D9890600088A0600D4
:100F9000368A06003D8A06004B8A0600678A0600EC
:100FA000928A0600BE8A0600CB8A0600D88A06000E
:100FB000E78A0600F58A0600008B06000C8B060007
:100FC000168B0600518B06005D8B0600C69106004D
:100FD000042801D8FFF702B970470000B428A8BF61
:100FE000B42038B520EAE0740025284621460135B2
:100FF000FFF7EEFF052DF8D10549064810F07AF904
:1010000021460A220348BDE8384010F0D6B900BF97
:10101000748106007C270020042808B503D8FFF758
:10102000D7FF012008BD0020FCE70000042811D8EC
:10103000002A0FDBB429A8BFB421B42A21EAE17148
:10104000A8BFB4228A4205DD034B184401744275DF
:101050000120704700207047401200202DE9F04326
:10106000884687B02C21074610F06EFC002842DB32
:10107000DFF88C90451C00242C212A46384610F0BD
:1010800055FC49460646684610F0FDFA002E28DA5F
:101090002A46394603A8FFF7D3F803A9684610F09B
:1010A0004FFB03A810F0A4FA684610F071FC029BF5
:1010B000F3B1684610F095FC002E48F8240001DAE0
:1010C000042C15D16846013410F092FA052C06F173
:1010D000010501D101200FE0042C14BF2C210A21AD
:1010E000CBE733462A46394603A810F031FCD4E753
:1010F000684610F07DFA002007B0BDE8F08300BF1D
:10110000D39506000A4B0B4A70B51A6001221A717A
:10111000002203F10F0110460A25AA249E1802326C
:10112000F08001F8015F0A2A4C718872F6D170BD17
:101130004012002053445270F8B525492548264FE7
:10114000244E10F0D7F800243D463B190A22B3F98B
:101150000610304610F02FF902342C21304610F0E2
:10116000CDF80A2CF1D11B4E00242B190A22197C30
:10117000304610F039F901342C21304610F0BEF819
:10118000052CF2D1134E00242B190A22597D30462A
:1011900010F02AF901342C21304610F0AFF8052C5C
:1011A000F2D10C4E00242B190A22997E304610F001
:1011B0001BF9042C03D02C21304610F09FF8013489
:1011C000052CF0D10348BDE8F84010F09BB800BFF3
:1011D0006D8506007C27002040120020F8B51449D8
:1011E0001448154E154F134D10F09CF8002456F876
:1011F00024102046FFF7ECFE3946284610F07AF816
:101200000F4B284653F8241010F074F80D49284667
:1012100010F070F856F824100A22284610F0CBF887
:1012200001340949284610F07DF8052CDFD1F8BDBE
:10123000A78706007C2700204C020020CB870600F1
:10124000040200208EC80600CE870600F8B51446BA
:101250000E460546FFF7C2FF4FF4C87010F088FC39
:10126000214B01271F7010F071FC204B1860204BA0
:10127000052C1D601F4BA8BF05241E60BC421E4BE1
:10128000B8BF3C461C601D4B00241C601C4B1C60FE
:101290001C4B1C601C4B1F601C4B1C6010F056FC50
:1012A0001B4B1C4918601C4B1C601C4C1C4B032224
:1012B00020461A7010F01EF80A223146204610F01F
:1012C0007AF81849204610F015F820460A224FF403
:1012D0007A71B5FBF1F110F07AF820461249BDE8B9
:1012E000F84010F01FB800BF8C1700209C1700209A
:1012F0009417002098170020600200207817002023
:101300008017002088170020480200208417002042
:101310007C170020F3900600001300207C2700209B
:10132000A8120020009106000691060038B50A4B6D
:101330000A4D00241C7055F8241020460134FFF794
:1013400047FE052CF7D1064B0649074800221A70C4
:10135000BDE838400FF0E6BF8C1700204C0200209B
:10136000A81200207F8F06007C27002000000000CC
:101370002DE9F04FC24B2DED028B1B7885B0002B71
:101380007BD010F0E3FBBF4BBF4A1D681368052DEF
:1013900014BF2821C821C31A8B4207466DD3BB4B0B
:1013A00010601C68BA4B1B68041B9C420AD3FFF7F1
:1013B000BDFFB849B84805B0BDEC028BBDE8F04FA1
:1013C0000FF0B0BF002D5DD1B44EDFEDB58A3C23E8
:1013D000009305220A23012130680FF067FE33686D
:1013E0009FEDB07A013B07EE903AF8EEE77A08EE0F
:1013F000100AA7EE877AB8EEC88A17EE100A4EF0E8
:10140000C3FE9DA3D3E900234EF016FF07EE904ADA
:101410009FEDA57AF8EE677A0646C7EE877A0F4603
:1014200017EE900A4EF0B0FE02460B4630463946A3
:101430004EF002FF06460F4607EE905AF8EEE77AA6
:1014400067EEA87A17EE900A4EF09EFE32463B46B3
:101450004EF03CFD4FF0C0F94FF0B6FC07EE900A9D
:1014600068EE277A2846FDEEE77A013517EE901AE6
:101470005A31FFF7ADFD052DDED105B0BDEC028B75
:10148000BDE8F08F894B1C68042DA0EB040498463E
:1014900039D1874EDFF83892DFF818A200251E23D5
:1014A00003FB1543002B0EDBDAF8002056F825105D
:1014B00059F8253022B95B1A022293FBF2F3194442
:1014C0002846FFF785FD0135052DE8D1F92CD4D943
:1014D000784AC8F80070136883F00101012B11608D
:1014E000CBD1754C75492368013323606A480FF0EE
:1014F00001FF216868480A2205B0BDEC028BBDE8F7
:10150000F04F0FF05ABF052D47D107EE904AB8EEC5
:10151000677ADFED6B7ADFF89C91DFF8B4A187EE94
:10152000278A00254E46F7EE007AB4EEE78AF1EE00
:1015300010FA58BFB0EE678A5D4A5AF8253052F863
:101540002510D9F8002012B11A460B4611465B1A35
:1015500007EE903AF8EEE77A284667EE887A01358A
:10156000FDEEE77A17EE903A0B441946FFF730FD8F
:10157000052DE1D1B4F5FA6FFFF47FAF3368C8F8F9
:10158000007083F00102012B32607FF476AF4A4C89
:101590004C49236801332360A8E7062D40F0A28060
:1015A00007EE904AB8EE677ADFED477A474E40493A
:1015B0003368474A51F823B052F823303D4AC7EE0A
:1015C000278A10688A469146F7EE007AF4EEE78A99
:1015D000F1EE10FA58BFF0EE678A10B11A465B467A
:1015E0009346A3EB0B0308EE103A00253368AB4299
:1015F0000ABFF8EEC87A5AF8251067EEA87A28468E
:1016000008BFFDEEE77A05F1010504BF17EE901A59
:101610005944FFF7DDFC052DE8D1B4F5487FFFF410
:101620002CAFD9F80030C8F8007083F00102012B0C
:10163000C9F800207FF421AF264917480FF05AFE61
:10164000254B3268144853F822100FF053FE2349FB
:1016500011480FF067FE3368013393FBF5F505EB96
:1016600085055D1B3560002D7FF407AF124C1C49CA
:1016700023680133236039E7182D4454FB211940B6
:101680008C17002098170020001300209C170020C2
:1016900094170020A48F06007C2700206002002001
:1016A000CDCC4C3ECDCCCC3D00007A447C17002004
:1016B0004C0200207817002084170020AF8F06000E
:1016C0000000FA44C18F060000004844881700203B
:1016D00034020020D58F060004020020C9A10600B4
:1016E000DA8F0600072D27D1DFF80C93DFF804A36B
:1016F00000254E46D9F80030DBB9BA4B53F8251017
:1017000028460135FFF764FC052DF3D1B4F57A7F47
:10171000FFF4B3AE3368C8F8007083F00102012B08
:1017200032607FF4AAAEB04CB04923680133236025
:10173000DCE65AF82510E3E7012D5BD1AC4DAD494D
:101740002868A84BAC4E1A6851F820B053F82030E6
:101750003068D1F800A0039150B9A2EB0A0202212F
:10176000A3EB0B0392FBF1F293FBF1F392449B4446
:101770004FF00009B9F1000F2AD151464846FEF753
:101780002DFD09F10109B9F1050FF3D1B4F5967FEB
:10179000FFF473AE3468C8F8007084F00103012CC4
:1017A00033607FF46AAE954995480FF0A3FD954BE1
:1017B0002A68934853F822100FF09CFD92499048F4
:1017C0000FF0B0FD2B680133042B0CDC2B6054E6CA
:1017D0002A684A4516BF039B594653F829104846C4
:1017E000FFF7F6FBCDE72C607F4C88492368013377
:1017F00023607BE6022D40F08480854885497D4E3C
:1018000003680A6856F82350039681468B4612BB3C
:1018100007EE904AF8EE676ADFED7F7A714A86EE4E
:10182000A77A52F823305B1BF7EE007AB4EEE77A22
:10183000F1EE10FA58BFB0EE677A07EE903AF8EE84
:10184000E77A67EE877AFDEEE77A17EE903A1D4465
:1018500040F2DC5A06E0012A2ED1624A52F82350A7
:1018600040F6B83A0026D9F80020B24216BF039BD2
:10187000294653F8261030460136FFF7A9FB052EFE
:10188000F1D15445FFF4F9ADDBF80030C8F8007031
:101890000133CBF80030032B7FF7EFAD0023CBF8FB
:1018A0000030D9F80030013393FBF6F606EB8606DC
:1018B0009E1BC9F80060E0E5022A1FD107EE904A9E
:1018C000F8EE676ADFED547A464A86EEA77A52F858
:1018D0002330EA1AF7EE007AB4EEE77AF1EE10FA66
:1018E00058BFB0EE677A07EE902AF8EEE77A67EE17
:1018F000877AFDEEE77A17EE905AA8E74FF47A7AE6
:10190000B0E7032D7FF4B9AD414842490568394E2F
:10191000DFF8D0C00A6856F8253003965CF82550E9
:1019200081468B46CABB07EE904AF8EE676ADFED48
:101930003B7A86EEA77AEA1A41F2883AF7EE007A05
:10194000B4EEE77AF1EE10FA58BFB0EE677A07EE20
:10195000902AF8EEE77A67EE877AFDEEE77A17EEDF
:10196000905A1D440026D9F80020B24216BF039BAE
:10197000294653F8261030460136FFF729FB052E7D
:10198000F1D15445FFF479ADDBF80030C8F80070B0
:101990000133CBF80030022B7EE7012A1FD007EE7F
:1019A000904AF8EE676ADFED1E7A86EEA77A5B1B37
:1019B00040F6B83AF7EE007AB4EEE77AF1EE10FAB4
:1019C00058BFB0EE677A07EE903AF8EEE77A67EE26
:1019D000877AFDEEE77A17EE903A1D44C2E74FF49E
:1019E000FA6ABFE73402002084170020EF8F060058
:1019F000480200204C02002078170020FE8F0600CD
:101A00007C27002004020020C9A1060009900600DE
:101A100088170020801700200080BB4400409C45B0
:101A200000803B45022804DD0528B4BF02200320C6
:101A3000704701207047000010B52DED028B2F4C30
:101A400082B010F083F82268801AB0F57A7F52D9FC
:101A50002B4B9FED2C7AD3ED007AD3ED016A77EE14
:101A6000877A03F1140277EEA67AD3ED026A77EE55
:101A7000A67AD3ED036A77EEA67AD3ED046A77EE01
:101A8000A67AF1EE046A87EEA66AF0EE477AB3EC26
:101A9000017A37EE467A9342E7EE077AF7D187EE7E
:101AA000A68A194ADFED197AB4EEE78AF1EE10FA48
:101AB0001CDD13680133032B136019DD144915482D
:101AC0000FF030FC144913480FF014FC18EE100A04
:101AD0004EF05AFB0223009302460B460D480FF0CE
:101AE0004DFD002002B0BDEC028B10BD0023136041
:101AF00010F02CF820600120F4E700BF6C120020E9
:101B00002C130020000000006812002000401C463A
:101B10000E8C06007C270020518C06002DE9F04138
:101B20002DED028B044682B065496648664FDFF8AA
:101B300094819FED668A0FF0DDFB254604F11406C3
:101B4000394640460FF0D6FBF5EC017AF5EEC07A47
:101B5000F1EE10FA00F1AA80F4EEC87AF1EE10FA74
:101B600000F3A680FDEEE77A17EE901A0A22554898
:101B70000FF021FCB542E3D1534952480FF0BAFBB4
:101B8000D4ED057AF5EEC07AF1EE10FA00F193800B
:101B90009FED4E7AF4EEC77AF1EE10FA00F38D80E5
:101BA000FDEEE77A17EE901A0A2246480FF003FC82
:101BB000454944480FF09EFBA0694EF0E5FA032525
:101BC00002460B4600953F480FF0D6FC3E493D4883
:101BD0000FF090FBE0694EF0D7FA009502460B46F5
:101BE00038480FF0C9FC384936480FF083FB206AAB
:101BF0004EF0CAFA009502460B4632480FF0BCFC84
:101C0000314930480FF076FB606A4EF0BDFA00951E
:101C100002460B462B480FF0AFFC2B4929480FF02A
:101C200069FBA06A4EF0B0FA009502460B462548C3
:101C30000FF0A2FC244923480FF05CFBE06A4EF051
:101C4000A3FA009502460B461E480FF095FC1E496C
:101C50001C480FF04FFB206B4EF096FA00950246A1
:101C60000B4618480FF088FC174916480FF042FB46
:101C7000606B4EF089FA009502460B4611480FF052
:101C80007BFC11490F480FF035FBA06B4EF07CFA3E
:101C9000009502460B460B480FF06EFC094802B057
:101CA000BDEC028BBDE8F0410FF02CBB00215DE7DD
:101CB00040F2FF315AE7002176E740F2FF3173E747
:101CC0008B8B06007C2700202F9A060000C07F44E3
:101CD00010B59849984886B00FF024FB974B1C68C4
:101CE000236820469B68984728B9954992480FF089
:101CF00019FB06B010BD93498F480FF013FB236802
:101D00009149DB6B2046984723688F499B6C20469E
:101D100098478E4903A80FF0B6FC8B4968460FF030
:101D2000B2FC694603A80FF07AFD014682480FF025
:101D3000EFFA68460FF05CFC03A80FF059FC23682B
:101D4000834AD3F888300021204698472368814A87
:101D5000D3F888300121204698477F4976480FF014
:101D6000E1FA7E4903A80FF08EFC03A97C4807F036
:101D70002BFC03A80FF03CFC7A4903A80FF083FC6E
:101D800003A9794807F020FC03A80FF031FC77493C
:101D900003A80FF078FC03A9754807F015FC03A809
:101DA0000FF026FC734964480FF0BCFA724A73487E
:101DB000032107F003FA72495F480FF0B3FA68494C
:101DC000704807F0EBFB70495B480FF0ABFA6B49CA
:101DD0006C4807F0E3FB6D4957480FF0A3FA6249DE
:101DE000684807F0DBFB6A4953480FF09BFA6049EB
:101DF000644807F0D3FB67494F480FF093FA236814
:101E000060491B6D2046984763494B480FF08AFA9A
:101E1000236820465B6D9847604947480FF082FA77
:101E20005F4945480FF07EFA5E4903A80FF02BFC8E
:101E3000454968460FF027FC694603A80FF0EFFC00
:101E400001463D480FF064FA68460FF0D1FB03A845
:101E50000FF0CEFB544903A80FF015FC5349684618
:101E60000FF011FC694603A80FF0D9FC0146324877
:101E70000FF04EFA68460FF0BBFB03A80FF0B8FB5B
:101E80004B4903A80FF0FFFB4A4968460FF0FBFBE4
:101E9000694603A80FF0C3FC014627480FF038FA43
:101EA00068460FF0A5FB03A80FF0A2FB424903A868
:101EB0000FF0E9FB414968460FF0E5FB694603A8CE
:101EC0000FF0ADFC01461C480FF022FA68460FF0F7
:101ED0008FFB03A80FF08CFB394903A80FF0D3FB4D
:101EE000384968460FF0CFFB694603A80FF097FC0E
:101EF000014611480FF00CFA68460FF079FB03A871
:101F00000FF076FB304903A80FF0BDFB2F49684660
:101F10000FF0B9FB694603A80FF081FC01460648A3
:101F20000FF0F6F968460FF063FB03A80FF060FBB3
:101F30002749DBE6898106007C2700208CC5060046
:101F40009D810600B2810600CB810600E581060076
:101F5000315501008D550100F78106000A82060007
:101F60004C170020178206007812002020820600FD
:101F70005C1700202D820600F94401009412002015
:101F800049820600081300205D8206007E8206005A
:101F90009B820600BA820600DB820600F082060001
:101FA0000883060022830600308306003F83060074
:101FB00064830600778306009C830600AB830600DB
:101FC000D0830600E183060006840600198406001B
:101FD0003E840600024B186803681B69184700BF5F
:101FE0008CC50600F0B5434B1B788BB00446002B24
:101FF0006CD04149414F01A80FF045FB2646002512
:10200000012256F8041B07A80FF0AAFB07A901A894
:102010000FF0E4FB07A80FF0EBFA042D03D03946CC
:1020200001A80FF0ECFB0135052DE9D13349334E02
:1020300004A80FF028FB0122616907A80FF090FBAC
:1020400007A904A80FF0EBFB014601A80FF0C6FB9F
:1020500007A80FF0CDFA04A80FF0CAFA04F118058A
:102060003C34314604A80FF00EFB022255F8041B45
:1020700007A80FF075FB07A904A80FF0D0FB0146D5
:1020800001A80FF0ABFB07A80FF0B2FA04A80FF0FD
:10209000AFFAAC42E5D11A491A480FF02BF90A22DF
:1020A000039918480FF0ACF9174916480FF022F9B8
:1020B00001A914480FF02CF9039B642B08D801A93F
:1020C000124807F081FA01A80FF092FA0BB0F0BDA8
:1020D0000F490C480FF026F96423002201A907A834
:1020E0000FF036FC07A901A80FF02AFB07A80FF094
:1020F0007FFAE4E7911200202B9A06002F9A06003F
:102100002A8506007C2700203C8506004C1700200D
:102110004685060030B53B4B1B7893B0002B67D04B
:10212000394B1B78002B63D0384C394968460FF087
:10213000AAFA2368052B08D8DFE803F003035C5EE6
:102140006062344968460FF05AFB25681E2105FB82
:10215000011506A830490FF096FA0A22216809A84D
:102160000FF0B0FA09A906A80FF059FB2B490FF0A0
:1021700062FB2B4BDFED2B7A93ED007A67EE277A2B
:10218000012217EE901A04460CA80FF0E9FA0CA9E8
:1021900020460FF044FB24490FF04DFB69460FF039
:1021A0003EFB22490FF047FB0A22044629460FA8AE
:1021B0000FF088FA0FA920460FF031FB014603A863
:1021C0000FF0B4FA0FA80FF013FA0CA80FF010FAE2
:1021D00009A80FF00DFA06A80FF00AFA03A914488F
:1021E00007F0F2F903A80FF003FA68460FF000FABF
:1021F00013B030BD0F49A5E70F49A3E70F49A1E789
:102200000F499FE791120020CC120020A412002059
:102210001E90060038900600D9900600E090060057
:10222000A01200200000C842E7900600ED900600D2
:10223000781200205C900600819006009D900600B8
:10224000B890060030B5114C227812F0FD0F85B021
:10225000054603D101460E480FF05AF82378013B9A
:10226000012B10D80B4B1B786BB1AB68642B0AD8D1
:10227000296801A80FF007FA01A9074807F0A4F997
:1022800001A80FF0B5F905B030BD00BF1C02002059
:102290007C270020911200207812002030B58FB0EA
:1022A0007D497E4C0BA80FF0EEF90BA8FFF7CAFF93
:1022B0000BA80FF09DF97A490BA80FF0E4F90BA8D1
:1022C000FFF7C0FF0BA80FF093F9764908A80FF0AD
:1022D000DAF9754B0A22196805A80FF0F3F905A978
:1022E00008A80FF09CFA01460BA80FF01FFA0BA8E4
:1022F000FFF7A8FF0BA80FF07BF905A80FF078F9FE
:1023000008A80FF075F9694905A80FF0BCF90A2271
:10231000216802A80FF0D6F902A905A80FF07FFAEC
:1023200063490FF088FA2368013B0546042B00F24D
:102330008980DFE803F0037F818385005D4908A879
:102340000FF0A1F908A928460FF069FA5A490FF0D1
:1023500072FA01460BA80FF0E9F90BA8FFF772FF1C
:102360000BA80FF045F908A80FF042F902A80FF0EA
:102370003FF905A80FF03CF9504908A80FF083F980
:102380004F4BDFED507A93ED007A67EE277A01220A
:1023900017EE901A05A80FF0E3F905A908A80FF0A9
:1023A0003EFA49490FF047FA01460BA80FF0BEF973
:1023B0000BA8FFF747FF0BA80FF01AF905A80FF0BD
:1023C00017F908A80FF014F99623052200930121AC
:1023D0001E2320680EF06AFE3C49054608A80FF04F
:1023E00052F90A22294605A80FF06CF905A908A898
:1023F0000FF015FA36490FF01EFA01460BA80FF040
:1024000095F90BA8FFF71EFF0BA80FF0F1F805A830
:102410000FF0EEF808A80FF0EBF82E4908A80FF01F
:1024200032F92368013B042B12D8DFE803F00D2CAE
:102430002E303200284982E7284980E728497EE784
:1024400028497CE728497AE7284908A80FF0D7F9F6
:1024500008A90BA80FF06AF90BA8FFF7F3FE0BA869
:102460000FF0C6F822490BA80FF00DF90BA8FFF7E3
:10247000E9FE0BA80FF0BCF8FFF74CFE08A80FF020
:10248000B7F80FB030BD1B49DFE71B49DDE71B493B
:10249000DBE71B49D9E700BFD3950600A412002053
:1024A000839B06009F9B0600881200209C8D0600DF
:1024B00039850600B09B0600C08D0600B28D06006F
:1024C000A01200200000C84215980600D19B06000B
:1024D000F29B06001E900600B79B0600BC9B060000
:1024E000CA9B0600C59B060090D2060038900600E5
:1024F000C49106005C900600819006009D90060045
:10250000B8900600000000002DE9F04F2DED068B7D
:10251000CD4BCE4D1A682968DFEDCD8A002685B0F7
:10252000CDE902660A441A60B0EE68AA37469B46B7
:102530002B68B34240F3D880C64B33F916A0039BF7
:102540008AEAEA74A4EBEA742344C82C039340F3A8
:10255000A080C14BD3ED009A07EE904AF5EEC09AE9
:10256000F1EE10FA07F10107B8EEE79A34DD39EE23
:10257000698AB5EEC08AF1EE10FAD4BFF1EE487A5E
:10258000F0EE487A17EE900A4DF0FEFD79EE897A6A
:10259000804617EE900A89464DF0F6FD0022AF4BBB
:1025A0004DF04AFE0B460246494640464DF06EFF4E
:1025B0004EF012F9AA4B07EE100AD3ED007A77EE2F
:1025C000877A78EE878AC3ED007AA64BD3ED007A3E
:1025D000E8EE087AC3ED007A20464DF0C3FD96A3DD
:1025E000D3E900234DF052FF00229F4B4DF024FE13
:1025F00093A3D3E900234DF069FC4EF0EDF89B4B1B
:10260000D3ED00AAF5EEC0AAF1EE10FA09EE900A99
:1026100034DD39EEEA8AB5EEC08AF1EE10FAD4BFA5
:10262000F1EE487AF0EE487A17EE900A4DF0ACFDE4
:102630007AEEA97A804617EE900A89464DF0A4FDFD
:102640000022864B4DF0F8FD0B46024649464046B7
:102650004DF01CFF4EF0C0F8854B07EE100AD3ED8D
:10266000007A77EE877A3AEE07AAC3ED007A814BBB
:10267000D3ED007AE8EE087AC3ED007A7B4BC3ED28
:10268000009A754BB4F5FA7F83ED009A07DC0136AA
:102690004EE7632CFBDC029B01330293F7E7B4F5B2
:1026A0007A7F0AFB0AFA07EE90AABCBFC4F57A74D7
:1026B0006443B8EEE77AB6BF07EE904ADFED6E7A74
:1026C000F8EEE77AC7EE277A17EE900A4EF0CAFBCB
:1026D0006A4B06EE900AD3ED007AB2EE047AE6EE8B
:1026E000877AC3ED007AD2E7654A029913680B44F2
:1026F0001360644ADBF8001013683B441360624ABD
:102700001368013313604FF4FA6291FBF2F302FB9A
:102710001313002B40F08B8007EE907AB8EEE77A27
:10272000D5ED007AD5ED006A9FED536AF8EEE77AB1
:10273000F8EEE66AC7EE279ADDED037AF8EEE77A5F
:1027400069EE869AC7EEA6AAD5ED006ADDED027A9B
:10275000F8EEE66AF8EEE77A87EEA68A28EE068AB1
:10276000002F5FD08AEE079A88EE87AA474948482B
:102770000EF0C0FD0A22DBF8001045480EF01BFEEB
:10278000444943480EF0B6FD1AEE900A4DF0FCFCA9
:102790000023024600933E480B460EF0EDFE3E49F4
:1027A0003B480EF0A7FD19EE900A4DF0EDFC012418
:1027B00002460B46009436480EF0DEFE3749344898
:1027C0000EF098FD19EE100A4DF0DEFC04250246CD
:1027D0000B4600952E480EF0CFFE31492C480EF0E6
:1027E00089FD1AEE100A4DF0CFFC009502460B460B
:1027F00027480EF0C1FE2B4925480EF07BFD18EE50
:10280000100A4DF0C1FC009402460B4620480EF021
:10281000B3FE25491E4805B0BDEC068BBDE8F04F60
:102820000EF080BD9FED0A9AB0EE49AA9EE705B072
:10283000BDEC068BBDE8F08F00000000C0FFDF405C
:102840000000000000C062408C12002048170020E9
:102850000000000048130020D01200200000E03FDC
:10286000741700208412002000006940D812002054
:1028700070170020B01200200000C8426C17002022
:1028800058170020A0170020B412002067990600F6
:102890007C270020709906007B9906008699060027
:1028A000929906009E99060015980600104B114952
:1028B00000221A60104B1A60104B1A6000230B6044
:1028C0000F490B600F490A600F490A600F490B60FE
:1028D0000F490A600F490A600F4A13600F4A1360DC
:1028E0000F4A13700F4A13600F4A1360704700BFFE
:1028F0007017002058170020741700206C17002054
:1029000044130020B012002084120020A0170020E1
:10291000D0120020D8120020B4120020241300206E
:1029200028130020481700208C1200202DE9F043C6
:102930002DED028B83498448844C89B00EF0F2FC63
:10294000834981480EF0EEFC05232370FFF7AEFFAC
:1029500080480CF0EFFC64200FF00AF97E497D48B6
:102960000CF014FD4FF47A5201217A480CF05AFC15
:10297000054648B9794974480EF0D4FC257009B071
:10298000BDEC028BBDE8F0831E217248744C754E7D
:10299000DFF82492744F0CF0FBFC74496A480EF087
:1029A000C1FC00250123237035700FF0CFF880465D
:1029B0000FF0CCF841F28733A0EB0800984269D8B9
:1029C000D9F80030A3B1237893B13B680133032BCE
:1029D0003B604CDD664B1A782AB9012265495A489A
:1029E0001A700EF09FFCFFF78FFD0023C9F800302E
:1029F0000FF0ACF8401BB0F57A7F34D35E495248F3
:102A00000EF078FC0FF0A2F84FF47A730A22A0EBD4
:102A100008014D48B1FBF3F10EF0D9FC57494A4883
:102A20000EF068FC564B484819680A220EF0C3FCA9
:102A3000544945480EF05EFC0A22396842480EF0BF
:102A4000BAFC514940480EF055FC494B4F4A1978A1
:102A50004F4B3D48002914BF114619460EF062FC49
:102A60000FF074F8054601200FF082F8A0E74949FD
:102A700035480EF03FFC0A22396833480EF09BFCC3
:102A8000454931480EF036FC0A2203212E480EF04B
:102A900094FCAAE700233A4D23704049012402A880
:102AA00034700EF0F0FD0A22296805A80EF00AFE27
:102AB00005A902A80EF0B3FE014623480EF028FC3B
:102AC00005A80EF095FD02A80EF092FD344902A86B
:102AD0000EF0D9FD244B0A22196805A80EF0F2FD6C
:102AE00005A902A80EF09BFE014617480EF010FC47
:102AF00005A80EF07DFD02A80EF07AFDD5ED007A56
:102B00009FED287A28491048F8EEE77A87EE878A01
:102B1000DFED267A28EE278A0EF0ECFB18EE100A7D
:102B20004DF032FB009402460B4607480EF024FDA0
:102B30001F4905480EF0F6FB1E4903480EF0F2FB54
:102B40001DE700BF4E9306007C270020A81200203E
:102B500069930600C0250020D1550100AA93060004
:102B6000691700206817002024130020CB9306006B
:102B700028130020F69306003794060045940600BB
:102B80008C1200205A9406006894060046930600B2
:102B90004A9306001E9406003594060073940600BE
:102BA0009D94060000409C47E18E06000000C8424C
:102BB00015980600B29406004817002030B5454B22
:102BC0001B789DB0002B00F08380434C434904A840
:102BD0000EF059FD0A22216807A80EF073FD07A91F
:102BE00004A80EF01CFE3E490EF025FE0322054609
:102BF00061680AA80EF0B4FD0AA928460EF00FFE7F
:102C000038490EF018FE04220546A1680DA80EF002
:102C1000A7FD0DA928460EF002FE33490EF00BFE6B
:102C200004220546E16810A80EF09AFD10A9284676
:102C30000EF0F5FD2D490EF0FEFD0122054621693D
:102C400013A80EF08DFD13A928460EF0E8FD2849C3
:102C50000EF0F1FD03220546616916A80EF080FD15
:102C600016A928460EF0DBFD22490EF0E4FD0322F2
:102C70000546A16919A80EF073FD19A928460EF0A2
:102C8000CEFD014601A80EF051FD19A80EF0B0FCD2
:102C900016A80EF0ADFC13A80EF0AAFC10A80EF0BA
:102CA000A7FC0DA80EF0A4FC0AA80EF0A1FC07A832
:102CB0000EF09EFC04A80EF09BFC01A90E4806F045
:102CC00083FC0E490E480EF02DFB01A80EF090FC7F
:102CD0001DB030BD91120020E4120020A999060019
:102CE000B1990600B8990600C1990600CB99060073
:102CF000D1990600DB9906005C170020E6990600D2
:102D00007C270020000000002DE9F04F2DED0A8BFC
:102D1000DF4CE049E04889B00EF004FBDF49DE48B3
:102D20000EF0E8FA2168DC480A220EF046FB236820
:102D3000DB4CB3F57A7F40F39082DA4D07EE903AA0
:102D40002B6807EE103A002BF8EEE77AB8EEC77A58
:102D500040F36082D44AD2ED006AD44A86EE87AA54
:102D6000D2ED006AD24A86EE879AD2ED006AC6EEAC
:102D7000878AD04A012BD2ED006AF8EEE66AC7EEE8
:102D800027AA86EEA7BA40F34C82013B07EE903AA1
:102D9000C94BF8EEE77A93ED007AC7EE277A17EE83
:102DA000900A4EF0D9F80CEE900A2B68012B40F3F4
:102DB0003B82013B07EE903AC04BF8EEE77A93ED89
:102DC000007AC7EE277A17EE900A4EF0C5F80CEE9F
:102DD000100A1AEE100A4DF0D7F999A3D3E900238F
:102DE00006460F464DF0B8FC002840F0208296A31E
:102DF000D3E90023304639464DF0AEFCDFEDB07A22
:102E00000028B6EE007A0CBF17EE908A17EE108AF3
:102E100019EE100A4DF0B8F98DA3D3E900238246CC
:102E20008B464DF099FC002840F004828AA3D3E938
:102E30000023504659464DF08FFCDFEDA17A002863
:102E4000F6EE00BA08BFF0EE67BAF2EE0E7AF4EED4
:102E5000E78AF1EE10FA00F1F081F3EE047AF4EE75
:102E6000E78ADFED977AF1EE10FAF6EE009A58BF96
:102E7000F0EE679A1BEE100A4DF086F978A3D3E9BD
:102E80000023CDE902014DF067FC002840F0D88115
:102E900075A3D3E90023DDE902014DF05DFC9FED50
:102EA000898ADFED877A002808BFB0EE678ADFEDF8
:102EB000867AF4EEE7CAF1EE10FA00F3C481DFED92
:102EC000837A9FED837AB4EEE7CADFED827AF1EE82
:102ED00010FAD4BF17EE105A17EE905A40464DF034
:102EE00053F900227C4B4DF0A7F980461BEE900A67
:102EF00089464DF049F90022774B4DF09DF9024685
:102F00000B46404649464CF0E1FF804619EE900AD8
:102F100089464DF039F954A3D3E900234DF08CF9DB
:102F200002460B46404649464CF0D0FF804618EE1C
:102F3000100A89464DF028F94DA3D3E900234DF03E
:102F40007BF902460B46404649464CF0BFFF80469F
:102F5000284689464DF018F945A3D3E900234DF0E2
:102F60006BF94B4D02460B46404649464CF0AEFFCE
:102F70004DF032FC2A684EF65F239A4208EE100AA2
:102F80000ADC4DF001F93CA3D3E900234DF054F9DC
:102F90004DF022FC08EE100A424B1B68B3F57A7F15
:102FA0000CDA18EE100A4DF0EFF835A3D3E9002340
:102FB0004DF042F94DF010FC08EE100A18EE100A20
:102FC0004DF0E2F822A3D3E90023804689464DF074
:102FD000A5FB002840F039812BA3D3E9002340460C
:102FE00049464DF0B9FB002840F03381F6EE007AF7
:102FF000B4EEE78AF1EE10FACCBF01230023374983
:10300000254823604FF0040884ED018A84ED02AA6C
:1030100084ED039AC4ED048A84ED05BAC4ED06AAD2
:103020000EF068F932463B46CDF800801A480EF0A3
:10303000A3FA2B4918480EF05DF9524652E000BF42
:10304000B81E85EB51B88E3F7B14AE47E17A843FC2
:103050009A9999999999A93FB81E85EB51B89E3FC5
:10306000333333333333D33F9A9999999999C93F7D
:10307000333333333333C33F9A9999999999E93F5D
:10308000666666666666E63F666666666666EE3F26
:103090008C120020628E06007C270020788E0600AD
:1030A000E4120020A01700207017002074170020E1
:1030B0006C17002058170020B01200208412002046
:1030C000CDCCCC3DCDCCCC3E0000484200007A4473
:1030D000CDCC4C3E9A99193F0000D03F938E06000C
:1030E000AD8E06005B46CDF8008060480EF044FAD5
:1030F0005F495E480EF0FEF818EE900A4DF044F875
:10310000012702460B46009758480EF035FA032671
:10311000584956480EF0EEF8DDE902230096534870
:103120000EF02AFA544951480EF0E4F81AEE900ACB
:103130004DF02AF8009602460B464C480EF01EFA57
:10314000D5ED007A9FED4D7A4D494848F8EEE77A83
:1031500087EE878ADFED4B7A28EE278A0EF0CAF8D1
:1031600018EE100A4DF010F800970B4602463F4843
:103170000EF002FA44493D480EF0BCF80A224349D9
:103180003A480EF018F9424938480EF0B3F80A22CE
:10319000296836480EF00FF93E4934480EF0C2F85F
:1031A0003D4A3E4B216805A8B94214BF1146194655
:1031B0000EF069FA3A492D480EF09CF805A92B4803
:1031C0000EF093F8374929480EF094F8364B5868BA
:1031D0004CF0DAFF00960B46024624480EF0CCF97C
:1031E000324922480EF086F80A2229681F480EF05C
:1031F000E2F82F491D480EF095F8FFF7DFFC05A80F
:103200000EF0F6F92B4B00221A7009B0BDEC0A8BB8
:10321000BDE8F08F9FED289AB0EE49AAF0EE498AFA
:10322000A7E5DFED25CAC0E59FED23CAD1E5DFF8AC
:10323000A480EDE5DFED21BA07E6DFED209A19E67F
:103240009FED1F8A33E61F4D48E69FED1F8A00233E
:10325000D5E69FED1E8A0123D1E61D4903480EF0F5
:1032600061F80023236000236360CBE77C27002004
:10327000B88E0600BF8E0600CE8E060000409C472A
:10328000DB8E06000000C842F08E06008038010088
:10329000FB8E06000D8F0600558E06003C8E060044
:1032A000168F06002B8F0600E4120020358F0600D3
:1032B0003F8F0600A812002000000000CDCC4C3F3C
:1032C0003333333F9A99193FCDCC4C3D3333733F61
:1032D000518F0600CDCC4C3F2DE9F0472DED028BF0
:1032E0006A496B486B4D6C4C82B00EF01BF86B4911
:1032F00067480EF017F80623694965482B700EF0F1
:1033000011F8FDF751FB4FF4FA700EF031FC6549EE
:103310005F480EF007F8FFF709FB00262B78052B16
:1033200000F0AB80237803F0FF0A002B40F0A5806B
:10333000DFF8B4815C4956485C4EDFF8B091DFEDB0
:103340005C8A0DF0EFFF98ED018ADFED5A7A96ED79
:10335000007A28EE278ADFED587AA7EE278A012720
:10336000F1EE047A68EE277A17EE900A4DF0F2FC3F
:1033700007EE900AFDEEE77A5049454817EE904A6D
:10338000052CA8BF0524012CB8BF01240DF0CAFFED
:103390004B493F480DF0AEFF0A22D9F800103C48D7
:1033A0000EF009F847493A480DF0A4FFD6ED007A2F
:1033B00067EEA87A17EE900A4CF0E6FE00970246F8
:1033C0000B4633480EF0D8F83F4931480DF0AAFFBC
:1033D0003E492F480DF08EFF3D4A3E4BD8F8001075
:1033E0002B48B9420CBF114619460DF083FF3A49EC
:1033F00027480DF07FFFD8ED017A67EEA87A17EE27
:10340000900A4CF0C1FE00970B46024620480EF091
:10341000B3F82D491E480DF085FF30491C480DF0CA
:1034200069FF0A2221461A480DF0C5FF2C491848A9
:103430000DF060FF68EE287A17EE900A4CF0A4FEBB
:10344000009702460B4612480EF096F81E491048A7
:103450000DF068FFC9F8004086ED008AFEF75AFEBD
:10346000FFF7ACFB1F490A4885F800A002B0BDEC8D
:10347000028BBDE8F0470DF055BF237813B1FFF77D
:1034800043FC26700A200EF073FB47E7319A0600D2
:103490007C270020A8120020681700204F9A060001
:1034A000939A0600AE9A0600D39A0600A012002056
:1034B0000000C842CDCCCC3E9A99193FF49A060040
:1034C000129B06002B9B060015980600389B0600F1
:1034D0003C8E0600558E06002B8F0600479B06008B
:1034E0005D9B06006D9B0600E4120020A4120020E4
:1034F0002DE9F047BD498EB005460EF0CBF920B15D
:10350000FDF76AFC0EB0BDE8F087B94928460EF019
:10351000C1F920B9B74928460EF0BCF910B1FDF742
:1035200043FAEFE709ACB44920460EF0ACF8214667
:1035300028460EF0F2F9064620460EF059F8DEB3A2
:103540002C2128460EF000FA00F1010807464246F9
:103550002C2128460EF0EAF9002F064640F3AC80F5
:10356000874280F2A98003462946424620460EF053
:10357000EFF920460EF035FA074620460EF038F8EF
:103580002946721C2046FCF75BFE20460EF029FA05
:10359000054620460EF02CF829463846FDF73CFD3E
:1035A00040B1964920460EF06EF82046FEF74AFEDE
:1035B000204623E09249F5E7924920460EF063F851
:1035C000214628460EF0A9F9074620460EF010F8CD
:1035D000CFB121462846FDF741FD90B154F82610A1
:1035E00030460136FDF718FD052EF7D1864906A8AD
:1035F0000EF049F806A8FEF725FE06A80DF0F8FF24
:1036000080E78249F3E7824920460EF03CF82146E4
:1036100028460EF082F9064620460DF0E9FF002EFE
:103620004CD02C2128460EF08FF900F101080746F6
:1036300042462C2128460EF079F9002F06463BDD44
:10364000874239DA03464246294620460EF080F981
:1036500020460EF0C6F906F10108814620460DF01D
:10366000C7FF42462C2128460EF060F986420746E5
:1036700022DA03462946424620460EF069F92046E2
:103680000EF0AFF9064620460DF0B2FF29467A1C2F
:103690002046FCF7D5FD20460EF0A3F9054620464E
:1036A0000DF0A6FF2A4631464846FDF7BFFC08B19B
:1036B000584977E7584975E7584973E75849284604
:1036C0000EF0E8F808B157496CE7574928460EF064
:1036D000E1F820B1FDF716FDFDF72EFD12E7534985
:1036E00020460DF0D0FF214628460EF016F906467A
:1036F00020460DF07DFF002E4DD02C2128460EF0E7
:1037000023F900F1010A074652462C2128460EF003
:103710000DF900F1010906464A462C2128460EF013
:1037200005F9002F804631DDB7422FDA86422DDAC7
:1037300033462946524620460EF00AF920460EF03E
:1037400050F9064620460DF053FF434629464A46A7
:1037500020460EF0FDF820460EF043F907462046BD
:103760000DF046FF294608F101022046FCF768FDEE
:1037700020460EF036F9054620460DF039FF394651
:103780002A463046FDF762FD29490BE7022500274E
:1037900044F62066F3E7274920460DF074FF2146E2
:1037A00028460EF0BAF8064620460DF021FF002EFE
:1037B00046D02C2128460EF0C7F8021E13DD2946FC
:1037C00001322046FCF73CFD20460EF00AF9054682
:1037D00020460DF00DFF184B01211A682846FDF711
:1037E00035FD1649DEE647F23055F4E7F08706006E
:1037F00092850600148806009D8506009A850600BD
:10380000A7850600C5850600C2850600D08506008E
:10381000E2850600DF850600EE850600B585060018
:10382000C08A0600FE850600CD8A06000F860600C7
:103830000C8606001E860600600200201B8606001D
:10384000A64920460DF01FFF214628460EF065F8D8
:10385000064620460DF0CCFEE6B12C2128460EF09F
:1038600073F8021E13DD294601322046FCF7E8FCFE
:1038700020460EF0B6F8054620460DF0B9FE984BEE
:1038800002211A682846FDF7E1FC96498AE64EF6C1
:103890006025F4E7944920460DF0F5FE21462846C0
:1038A0000EF03BF8064620460DF0A2FEE6B12C21B4
:1038B00028460EF049F8021E13DD29460132204643
:1038C000FCF7BEFC20460EF08CF8054620460DF0B5
:1038D0008FFE834B03211A682846FDF7B7FC834906
:1038E00060E64EF66025F4E7814928460DF0D2FFE8
:1038F000002838D07F4D2A681046FEF793F8064618
:10390000014647F23050FDF7A1FC7B4906A80DF0B7
:10391000BAFE0A22314603A80DF0D4FE03A906A878
:103920000DF07DFF75490DF086FF296806460A22D5
:1039300068460DF0C7FE694630460DF070FF01463F
:1039400020460DF0F3FE2046FEF77CFC20460DF0ED
:103950004FFE68460DF04CFE03A80DF049FE06A888
:103960000DF046FECEE5664928460DF093FF18B1EE
:10397000FDF7DCFC634915E6634928460DF08AFF34
:1039800018B1FDF72BFC61490CE6614920460DF0AA
:103990007AFE214628460DF0C0FF064620460DF06F
:1039A00027FEE6B12C2128460DF0CEFF021E13DDC6
:1039B000294601322046FCF743FC20460EF011F860
:1039C000054620460DF014FE454B04211A68284692
:1039D000FDF73CFC4F49E5E547F23055F4E74E4929
:1039E00020460DF050FE214628460DF096FF064673
:1039F00020460DF0FDFDE6B12C2128460DF0A4FF78
:103A0000021E13DD294601322046FCF719FC204630
:103A10000DF0E7FF054620460DF0EAFD304B05218D
:103A20001A682846FDF712FC3C49BBE547F23055C1
:103A3000F4E73B4920460DF026FE214628460DF0CE
:103A40006CFF064620460DF0D3FDE6B12C2128463A
:103A50000DF07AFF021E13DD294601322046FCF7E5
:103A6000EFFB20460DF0BDFF054620460DF0C0FDE2
:103A70001B4B06211A682846FDF7E8FB294991E50A
:103A80004EF66025F4E7284920460DF0FCFD21465E
:103A900028460DF042FF064620460DF0A9FD002EF7
:103AA00046D02C2128460DF04FFF021E13DD29467B
:103AB00001322046FCF7C4FB20460DF092FF05467C
:103AC00020460DF095FD064B07211A682846FDF7A4
:103AD000BDFB164966E547F23055F4E72986060036
:103AE0006002002026860600348606003186060025
:103AF0003C860600A4120020478606005B8606006E
:103B0000CE8906006386060074860600718606006C
:103B10007C86060079860600878606008486060075
:103B2000928606008F8606009D8606009A8606000D
:103B30009B4920460DF0A7FD214628460DF0EDFEDD
:103B4000064620460DF054FD002E65D02C21284657
:103B50000DF0FAFE00F10108074642462C212846E6
:103B60000DF0E4FE002F064654DD874252DA03468C
:103B70004246294620460DF0EBFE20460DF031FF6F
:103B80000136074620460DF033FD324629462046D1
:103B9000FCF756FB20460DF024FF00281CDA002518
:103BA00020460DF025FD042F32D87E4B7E4943F888
:103BB000275006A80DF067FD0A22394603A80DF02C
:103BC00081FD03A906A80DF02AFE78490DF033FE09
:103BD0000A2206462946ABE63246294606A8FCF7E5
:103BE0002FFB06A80DF0FDFEB42804DDB42506A8C1
:103BF0000DF0FEFCD4E72946324603A8FCF720FB73
:103C000003A80DF0EEFE054603A80DF0F1FCEEE76B
:103C10006749C7E46749C5E4674920460DF033FDAD
:103C2000214628460DF079FE064620460DF0E0FCC0
:103C3000002E53D02C2128460DF086FE00F10108FD
:103C4000074642462C2128460DF070FE002F0646FE
:103C500042DD874240DA03464246294620460DF0BF
:103C600077FE20460DF0BDFE0136074620460DF0DA
:103C7000BFFC324629462046FCF7E2FA20460DF00A
:103C8000B0FE00281BDB3246294606A8FCF7D8FA0E
:103C900006A80DF0A6FEB42804DDB42506A80DF094
:103CA000A7FC0DE02946324603A8FCF7C9FA03A891
:103CB0000DF097FE054603A80DF09AFCEEE70025EF
:103CC00020460DF095FC042F04D83C4B3C4943F8AA
:103CD00027506EE73B4965E43B4963E43B49204696
:103CE0000DF0D1FC214628460DF017FE0646204671
:103CF0000DF07EFC86B1294605222046FCF7A0FA8D
:103D000020460DF06EFE054620460DF071FC28465B
:103D1000FDF764F9FFF7F6BB2D4928460DF0BAFD13
:103D200028B1FDF703FBFCF793FAFFF7EBBB29493A
:103D300028460DF0AFFD00287FF4F1AB2649284658
:103D40000DF0A8FD18B1FEF7F1FDFFF7DBBB23492D
:103D500028460DF09FFD064618B1FFF7BDFAFFF7A4
:103D6000D1BB1F4928460DF095FD18B11D4B1E49CA
:103D70001E7017E41D4928460DF08CFD20B1194B2B
:103D80001B4901221A700DE41A4928460DF082FDE4
:103D900000283FF4B7AB134B174902221A7001E415
:103DA000A58606004C020020AD8606002F9A06006C
:103DB000B9860600CC860600F38606003402002091
:103DC000FA86060005870600178706001586060096
:103DD0001B880600148806002C880600358806001B
:103DE000E98A06001C0200203C870600F78A0600CC
:103DF0005C870600028B06007987060070B5214DAE
:103E0000214C2248224E402104F08AFD21492846B7
:103E100005F0A6FB22462049284645F006FA1F4D2C
:103E20001F4978231222304605F0C0FB30461D4E54
:103E30002246294645F0F9F9142308221A4930464A
:103E400005F0B4FB3046194E2246294645F0EDF9FF
:103E5000642312221649304605F0A8FB3046154E61
:103E60002246294645F0E1F91222134930469623AD
:103E700005F09CFB224629463046BDE8704045F0DF
:103E8000D4B900BF08130020000200201413002042
:103E90004C1700203F830600F5940100B501010096
:103EA0007783060094120020AB830600781200206E
:103EB000E18306005C1700201984060038B54FF432
:103EC000E1317348724C0BF023FF20460BF058FD94
:103ED0000028FAD002216F4802F0B6F820B96E49E6
:103EE0006B480DF01FFAFEE7022104200DF0E4FEFE
:103EF00001210D200DF0E0FE022108460DF0DCFE50
:103F0000022103200DF0D8FE644961480DF0F2F95A
:103F10000021634804F002FE6249614804F026FD76
:103F200061495F4804F078FD0A200DF021FE5F49E9
:103F300057480DF0F7F95E4B5A22C3E90022C3E956
:103F400002221A61FDF7DEF85A495B480BF01EFAAF
:103F50004FF47A52012158480BF064F920B95749BF
:103F60004B480DF0DFF9FEE71E215348544D554CE8
:103F70000BF00EFA544946480DF0D4F9FDF7A8FEAF
:103F8000524943480DF0CEF9514941480DF0CAF964
:103F90004E493F480DF0C6F94E493D480DF0C2F973
:103FA0004D493B480DF0BEF94C4939480DF0BAF97E
:103FB0004B4937480DF0B6F94A4935480DF0B2F98A
:103FC000494933480DF0AEF9484931480DF092F9AE
:103FD00002200DF0DDFE01280CBF294621462C48A9
:103FE0000DF0A0F942492A480DF084F903200DF0A4
:103FF000CFFE01280CBF2946214625483D4D3E4CA9
:104000000DF090F93D4922480DF074F9FCF734F9B0
:10401000002814BF294621461D480DF083F9384970
:104020001B480DF067F9FCF709FA002814BF294670
:10403000214617480DF076F9324915480DF072F90E
:10404000314913480DF06EF9304911480DF06AF905
:104050002F490F480DF066F9FCF70EF9B0B12D4C61
:1040600023789BB92C490A480DF05CF92B49084884
:104070000DF058F92A4906480DF054F940F6B830C9
:104080000DF076FDFCF758FA0123237038BD00BF10
:104090007C270020A8170020279C0600419C0600D2
:1040A00014130020C0FC9B0100004842529C0600F3
:1040B00020020020D1550100C0250020749C06007C
:1040C000BB8C0600C08C0600899C0600B2910600DD
:1040D000B19C0600E59C06000B9D06003A9D06007B
:1040E0005F9D06007F9D0600AA9D0600BF9D0600FD
:1040F000DB9D0600109C06001A9C0600F19D060040
:10410000FD9D0600CA910600099E06005D9E060000
:104110008B9E060090120020D79E0600209F06006E
:104120005C9F060030B52DED028B2A4D85B004460C
:104130000E2095ED008AFCF7A7F807EE900A78EEBE
:10414000677A0F20C4ED007A95ED018AFCF79CF8A0
:1041500007EE900A78EE677A1020C4ED017A95EDAB
:10416000028AFCF791F807EE900A78EE677A112040
:10417000C4ED027A95ED038AFCF786F807EE900A03
:1041800078EE677A1520C4ED037A95ED048AFCF782
:104190007BF807EE900A78EE677AC4ED047AFCF7B4
:1041A00057F90D4B07EE100AD3ED007A0B4877EE66
:1041B000677A03ABC4ED057A02AA01A901F0CAFA35
:1041C000019BA361029BE361039B236205B0BDECED
:1041D000028B30BDB8120020AC120020A8170020BE
:1041E0002DE9F04F2D4B1B788DB033B92C492D485C
:1041F0000DF098F80DB0BDE8F08F2B492B4C2948F5
:10420000284DDFF8BC900DF08DF8022323700DF0DF
:104210009DFC00260746A0460DF098FC42F20F7365
:10422000C01B984224D803A8FFF77CFF20492846EA
:104230000DF060F803AC0DF1300A4FF0030B494666
:1042400028460DF057F854F8040B4BF09DFFCDF8BD
:1042500000B002460B4628460DF08EF95445EED1CB
:1042600028460DF04FF8642001360DF081FCD3E7AD
:1042700010490C480DF056F80F490A480DF03AF86D
:104280000A22314607480DF096F80C4905480DF012
:1042900049F8002388F80030ACE700BFCD120020B9
:1042A0002B9106007C2700205B910600A8120020BD
:1042B0008B8B06007C91060080910600A59106007C
:1042C0002F9A06002DE9F04F3E4C8DB081468A466C
:1042D000002757456BDA3C49DFF8F4802046013768
:1042E0000DF008F80A22394620460DF064F83749E7
:1042F00020460CF0FFFF364920460DF013F800264B
:104300004E4543DC06F15A054FF0000B584629464E
:104310000BF1010BFCF75CFEBBF1050FF6D12D494B
:1043200020460CF0E7FF0A22314620460DF043F804
:10433000414620460CF0F6FF4FF47A700DF018FC61
:1043400003A8FFF7EFFE244920460CF0D3FF2946CF
:104350000A2220460DF02FF803AD0DF1300B1F4956
:1043600020460CF0C7FF55F8040B4BF00DFF03235C
:10437000009302460B4620460DF0FEF8AB45EED109
:10438000414620460CF0CEFF0F36B9E700252846FF
:104390005A210135FCF71CFE052DF8D10C492046A9
:1043A0000CF0C0FF4FF4FA600DF0E2FB91E7084912
:1043B00004480CF0B7FF0A4B00221A700DB0BDE89C
:1043C000F08F00BF7C270020089A06003594060075
:1043D000CD8B0600189A0600259A06002F9A060033
:1043E000A8120020204B1B7813B52049204823B980
:1043F00002B0BDE810400CF095BF1E4C0CF092FFCF
:104400001D491B480CF076FF0A22216818480CF061
:10441000D2FF164916480CF085FF184B03221A707C
:10442000174B00221A609623009305221E230121B8
:1044300020680CF03BFE134904460D480CF05AFF6F
:104440000A2221460A480CF0B6FF0F4908480CF032
:1044500051FF064906480CF065FF0521204602B0D1
:10446000BDE81040FFF72EBFCC120020CD8B060018
:104470007C270020A41200207B840600A8120020C4
:1044800090170020AD840600D484060010B50446C1
:104490000DF07EFA144920460DF0FCF918B1BDE884
:1044A0001040FFF79DBE114920460DF0F3F918B1F9
:1044B000BDE81040FFF796BF0D4920460DF0EAF920
:1044C00018B1BDE81040FCF795B90A4920460DF037
:1044D000E1F918B1BDE81040FCF704BB2046BDE887
:1044E0001040FFF705B800BF00880600A18706004E
:1044F00008880600F78706007FB50F49684605F073
:1045000067F8029B8BB10D490D480CF0F3FE69462C
:104510000B480CF0FDFE694603A80DF007F903A84F
:10452000FFF7B4FF03A80DF063F868460DF060F8DC
:1045300007B05DF804FB00BF94120020768C0600E3
:104540007C27002070B5244D8AB00DF0FFFA2B684F
:10455000C31A632B04460CD901A8FFF7E3FD1F49DA
:104560002C600B683220013393FBF0F200FB123316
:104570000B601B4E336841F28732E31A934229D90C
:10458000062101200CF085FD164D4FF47A7128604C
:104590004FF42F700CF07DFD4BF0E4FD0022124B28
:1045A0004BF074FF4CF018F9104B2A681A60104B4E
:1045B000686018600F4B01221A70FDF76FFE0E49FC
:1045C0000E480CF0AFFE0E4B00210D2019700DF0BF
:1045D000B7FB34600AB070BDE01200203C1200202E
:1045E000DC1200207012002000408F40A412002036
:1045F000A0120020CC120020369906007C27002053
:10460000A81200202DE9F04F2DED068BCE49CF48A2
:10461000CF4DD04EA5B00CF085FECF49CB480CF065
:1046200069FE02200DF0B4FBCC4BCD49012818BF28
:104630001946C6480CF076FECA49C4480CF072FE12
:10464000C949C2480CF06EFE0FCD06AC0FC415AFC1
:104650002B68C649236038460DF015F8C449BB4C99
:1046600018A80DF010F8C3491BA80DF00CF8C249AA
:104670001EA80DF008F8C14921A80DF004F80DF1AD
:10468000180800259FEDBE8ADFEDBE8A0DF12C09CA
:10469000CA46F0EE489ACB4698F800000DF09CFA16
:1046A00007EE900AF8EEE77A3220F4EE687AF1EE3F
:1046B00010FAF4EE487AEAEC017A48BFF0EE678A25
:1046C000F1EE10FAC8BFB0EE678A79EEA79A0DF046
:1046D0004FFA5745E0D1B2EE049A89EE89AA9FEDD0
:1046E000A87AF9EC017A77EECA7AD145A7EEA77AD3
:1046F000F7D1C7EE09AAA44903A80CF0C4FFDFED67
:10470000A37AF4EEE7AAF1EE10FAF0EE679A40F31E
:1047100010819F4903A80DF019F80C2101FB0571C8
:1047200020460CF0E2FD314620460CF0E3FD1AEE87
:10473000100A4BF029FD4FF0010902460B46CDF857
:10474000009020460CF018FF314620460CF0D2FDB8
:1047500018EE900A4BF018FD4FF0000A02460B4687
:10476000CDF800A020460CF007FF314620460CF0A3
:10477000C1FD18EE100A4BF007FDCDF800A002466F
:104780000B4620460CF0F8FE314620460CF0B2FDF8
:104790001AEE900A4BF0F8FCCDF8009002460B465A
:1047A00020460CF0E9FE314620460CF0A3FD03A99B
:1047B00020460CF0ADFD042D1CD1F4EEE9AAF1EE7B
:1047C00010FA17DD734920460CF0ACFD7249204603
:1047D0000CF0A8FD714920460CF0A4FD704920465C
:1047E0000CF0A0FD6F4920460CF09CFD6E49204660
:1047F0000CF098FD03A801350CF0FAFE052D08F128
:1048000004087FF43FAF694950489FED5D8ADFF8A7
:10481000CC914E4DDFF8C8810CF084FD00241420AB
:104820000DF0DAF907EE900A494601342846F8EE11
:10483000E78A0CF05FFD0A22214628460CF0BBFDFA
:10484000414628460CF056FD18EE900A4BF09CFCB1
:10485000022602460B46009628460CF08FFE642086
:104860000DF086F9052C38EE288AD8D15049374802
:104870000CF040FD18EE100A4BF086FC00224D4B68
:104880004BF004FE009602460B4630480CF076FED4
:1048900049492E480CF046FD5B4603AA02A9474849
:1048A00000F058FF002800F0AE80454927480CF082
:1048B00021FD02984BF068FC032402460B4600944D
:1048C00022480CF059FE3F4920480CF013FD039894
:1048D0004BF05AFC009402460B461C480CF04CFE70
:1048E00039491A480CF006FD0B984BF04DFC00942A
:1048F00002460B4615480CF041FE344913480CF0B3
:1049000011FD334911480CF00DFD21A80CF070FE8B
:104910001EA80CF06DFE1BA80CF06AFE18A80CF087
:1049200067FE38460CF064FE25B0BDEC068BBDE892
:10493000F08F78EE687A9FED277AF4EEC77AF1EE81
:1049400010FA51DD2449E5E6F49406007C270020A6
:1049500060810600D2950600BF9D0600E494060023
:10496000D39406000F9506003A9506006D95060053
:1049700078950600839506008E9506009C950600A6
:104980000000000000C07F44A795060000007A44A4
:10499000AE950600D49506000A9606001896060005
:1049A00038960600539606006E9606008F9606000F
:1049B000AF96060000001440BE960600A81700201F
:1049C000D3960600E4960600E996060002970600D4
:1049D0001D9706000000C842B8950600A496060080
:1049E000A098060000407D44B4EEC9AAF1EE10FA8A
:1049F00007D45FED047AB4EEE7AAF1EE10FA7FF780
:104A00008CAE034986E6034903480CF08BFC74E73F
:104A1000C5950600EE9606007C2700202DE9F043A0
:104A20008FB0C3490A2268460CF0CAFD68460CF0F4
:104A3000AFFFC04968460CF02DFF38B1FFF7D0FB3F
:104A400068460CF0D5FD0FB0BDE8F083BA49684662
:104A50000CF020FF10B1FFF7C5FCF1E7B74968463D
:104A60000CF018FF10B1FBF7C5FEE9E7B449684642
:104A70000CF010FF10B1FCF735F8E1E7B1496846DA
:104A80000CF008FF10B1FCF7A7F9D9E709ACAE4963
:104A900020460CF0F8FD214668460CF03EFF054626
:104AA00020460CF0A5FDB5B32C2168460CF04CFF58
:104AB000471C06463A462C2168460CF037FF002E6C
:104AC000054626DD864224DA03463A4669462046F4
:104AD0000CF03EFF20460CF084FF064620460CF00A
:104AE00087FD6A1C69462046FBF7AAFB20460CF0AE
:104AF00078FF054620460CF07BFD29463046FCF742
:104B00008BFA20B191498A480CF00CFC98E7904947
:104B1000F9E79049F7E7904920460CF0B4FD2146AB
:104B200068460CF0FAFE064620460CF061FD86B1A0
:104B300021466846FCF792FA48B154F825102846F9
:104B40000135FCF769FA052DF7D18449DBE7844983
:104B5000D9E7844920460CF096FD214668460CF0C2
:104B6000DCFE054620460CF043FD002D48D02C21EC
:104B700068460CF0E9FE471C06463A462C2168467A
:104B80000CF0D4FE002E0546C3DD8642C1DA034692
:104B90003A46694620460CF0DBFE20460CF021FF29
:104BA0006F1C804620460CF023FD3A462C216846B7
:104BB0000CF0BCFE85420646ABDA03463A4669462F
:104BC00020460CF0C5FE20460CF00BFF05462046A3
:104BD0000CF00EFD721C69462046FBF731FB2046A7
:104BE0000CF0FFFE064620460CF002FD3246294638
:104BF0004046FCF71BFA08B15B4984E75B4982E752
:104C00005B4968460CF046FE08B15A497BE75A49B1
:104C100068460CF03FFE20B1FCF774FAFCF78CFA02
:104C20000EE7564920460CF02EFD214668460CF052
:104C300074FE054620460CF0DBFC002D4CD02C21E8
:104C400068460CF081FE00F1010906464A462C2117
:104C500068460CF06BFE00F10108054642462C2127
:104C600068460CF063FE002E074630DDAE422EDAB9
:104C700085422CDA2B464A46694620460CF068FEEF
:104C800020460CF0AEFE054620460CF0B1FC3B463B
:104C90004246694620460CF05BFE20460CF0A1FE21
:104CA000064620460CF0A4FC7A1C69462046FBF719
:104CB000C7FA20460CF095FE074620460CF098FCFB
:104CC00031463A462846FCF7C1FA2D491BE7022730
:104CD000002644F62065F3E72A4920460CF0D3FC71
:104CE000214668460CF019FE054620460CF080FC73
:104CF000002D4DD02C2168460CF026FE021E13DD3F
:104D0000013269462046FBF79BFA20460CF069FE0B
:104D1000054620460CF06CFC1B4B01211A68284606
:104D2000FCF794FA1949EEE647F23055F4E700BF74
:104D30007C27002000880600A1870600088806005E
:104D4000F7870600F08706009D8506009A85060015
:104D5000A7850600B5850600C5850600C285060044
:104D6000D0850600E2850600DF850600EE85060098
:104D7000C08A0600FE850600CD8A06000F86060062
:104D80000C8606001E860600600200201B860600B8
:104D9000C84920460CF077FC214668460CF0BDFD62
:104DA000054620460CF024FCE5B12C2168460CF0A9
:104DB000CBFD021E13DD013269462046FBF740FAA7
:104DC00020460CF00EFE054620460CF011FCBA4BB6
:104DD00002211A682846FCF739FAB84993E64EF6DC
:104DE0006025F4E7B64920460CF04DFC21466846A4
:104DF0000CF093FD054620460CF0FAFBE5B12C21A2
:104E000068460CF0A1FD021E13DD01326946204602
:104E1000FBF716FA20460CF0E4FD054620460CF0A0
:104E2000E7FBA54B03211A682846FCF70FFAA549B2
:104E300069E64EF66025F4E7A34968460CF02AFDC2
:104E4000E8B1A24C22681046FCF7ECFD014605468D
:104E500047F23050FCF7FAF99D499E480CF04AFAA7
:104E60000A2229469B480CF0A6FA9B4999480CF067
:104E700041FA21680A2297480CF09FFAE0E5974929
:104E800068460CF007FD18B1FCF750FA94493AE671
:104E9000944968460CF0FEFC18B1FCF79FF9924962
:104EA00031E6924920460CF0EEFB214668460CF0B4
:104EB00034FD054620460CF09BFBE5B12C216846ED
:104EC0000CF042FD021E13DD013269462046FBF75D
:104ED000B7F920460CF085FD054620460CF088FB0E
:104EE000754B04211A682846FCF7B0F980490AE698
:104EF00047F23055F4E77F4920460CF0C4FB2146C9
:104F000068460CF00AFD054620460CF071FBE5B141
:104F10002C2168460CF018FD021E13DD0132694693
:104F20002046FBF78DF920460CF05BFD0546204638
:104F30000CF05EFB604B05211A682846FCF786F9E9
:104F40006D49E0E547F23055F4E76C4920460CF036
:104F50009AFB214668460CF0E0FC054620460CF022
:104F600047FBE5B12C2168460CF0EEFC021E13DD78
:104F7000013269462046FBF763F920460CF031FD0B
:104F8000054620460CF034FB4B4B06211A68284698
:104F9000FCF75CF95A49B6E54EF66025F4E7594945
:104FA00020460CF070FB214668460CF0B6FC064625
:104FB00020460CF01DFBE6B12C2168460CF0C4FC29
:104FC000021E13DD013269462046FBF739F92046FF
:104FD0000CF007FD054620460CF00AFB364B072176
:104FE0001A682846FCF732F947498CE547F23055F4
:104FF000F4E7464920460CF046FB214668460CF093
:105000008CFC054620460CF0F3FA002D00F097804A
:105010002C2168460CF098FC00F101080746424636
:105020002C2168460CF082FC002F054640F3858059
:10503000874280F2828003464246694620460CF051
:1050400087FC20460CF0CDFC0135074620460CF0CD
:10505000CFFA2A4669462046FBF7F2F820460CF0C4
:10506000C0FC00280DDB2A46694606A8FBF7E8F8D5
:1050700006A80CF0B6FCB42850DDB42606A80CF047
:10508000B7FA20460CF0B4FA042F54D8204B21492B
:10509000104843F827600CF02DF90A2239460D48D4
:1050A0000CF089F91C490B480CF024F90A2231460E
:1050B000E1E600BF29860600600200202686060081
:1050C00034860600318606003C860600A4120020C5
:1050D000478606007C2700205B860600CE890600F6
:1050E0006386060074860600718606007C860600CC
:1050F000798606008786060084860600928606006A
:105100008F8606009D8606009A860600A586060004
:105110004C020020AD8606002F9A06002A466946FA
:1051200003A8FBF78DF803A80CF05BFC064603A868
:105130000CF05EFAA2E75F49E5E45F49E3E45F490A
:1051400020460CF0A0FA214668460CF0E6FB064625
:1051500020460CF04DFA002E5FD02C2168460CF052
:10516000F3FB00F10108074642462C2168460CF08B
:10517000DDFB002F06464EDD87424CDA03464246F1
:10518000694620460CF0E4FB20460CF02AFC013670
:10519000074620460CF02CFA324669462046FBF7BB
:1051A0004FF820460CF01DFC00280DDB3246694606
:1051B00006A8FBF745F806A80CF013FCB4281BDD85
:1051C000B42506A80CF014FA20460CF011FA042FAE
:1051D0001FD83B4B3B493C4843F827500CF08AF81A
:1051E0000A22394638480CF0E6F8384936480CF0BF
:1051F00081F80A2229463EE63246694603A8FBF7B3
:105200001FF803A80CF0EDFB054603A80CF0F0F91D
:10521000D7E72F4977E42F4975E42F4920460CF052
:1052200032FA214668460CF078FB054620460CF021
:10523000DFF985B1062269462046FBF701F82046D2
:105240000CF0CFFB054620460CF0D2F92846FBF7C0
:10525000C5FEFFF7F5BB214968460CF01BFB18B1F2
:10526000FAF7F6FF1E494EE41E4968460CF012FBA1
:1052700018B1FBF799FBFFF7E3BB1B4968460CF03D
:1052800009FB18B1FDF752FBFFF7DABB1749684677
:105290000CF000FB18B1FEF71FF8FFF7D1BB144963
:1052A00068460CF0F7FA00283FF4CAABFFF7AAF9FA
:1052B000FFF7C6BBB9860600CC860600F38606005B
:1052C00034020020FA8606007C2700202F9A060070
:1052D0000587060017870600158606001B8806004E
:1052E000C2940600148806002C8806003588060043
:1052F0004288060008B504480AF022FC18B1BDE84F
:105300000840FFF78BBB08BD7C27002030B5594B08
:105310002DED028B1B789FED588A8BB00446002B35
:1053200000F08E80554D1520D5ED048AFAF7ACFFBC
:1053300007EE900A78EEE77A1120F4EEC87AF1EEE3
:1053400010FAD8BFF0EE487AC4ED007AD5ED038AA2
:10535000FAF79AFF07EE900A78EEE77A1020F4EE5B
:10536000C87AF1EE10FAD8BFF0EE487AC4ED017AAF
:10537000D5ED028AFAF788FF07EE900A78EEE77A11
:105380000F20F5EEC07AF1EE10FAD8BFDFED3A7AD1
:10539000C4ED027AD5ED018AFAF776FF07EE900A9E
:1053A00078EEE77A0E20F5EEC07AF1EE10FAD8BF6B
:1053B000DFED317AC4ED037AD5ED008AFAF764FFA8
:1053C00007EE900A78EEE78AF5EEC08AF1EE10FA61
:1053D000D8BFDFED298AFCF72FFB002808BFF0EECD
:1053E000488AC4ED048AFBF733F803AB606102AA74
:1053F00001A9234800F0AEF9019BA361029BE36180
:10540000039B236205AA06AB04A91D4800F056F9C8
:1054100008B3049B6362059BA362069BE36209AB2E
:1054200008AA07A9164800F023FAD8B1079B2363FE
:10543000089B6363099BA3630BB0BDEC028B30BD7B
:1054400080ED008A80ED018A80ED028A80ED038A7A
:1054500080ED048AC7E784ED098A84ED0A8A84ED29
:105460000B8ADCE784ED0C8A84ED0D8A84ED0E8ACC
:10547000E2E700BFCD12002000000000B8120020BB
:10548000A817002070B5104E90B00CF05FFB336889
:10549000C31A632B054615D90C4C01A8FFF736FF3C
:1054A000227812F0FD0F02D101A8FCF737FB237818
:1054B000013B012B05D8064B1B7813B101A8FCF763
:1054C00091FD356010B070BD041300201C02002057
:1054D0009112002010B5144CFCF77CFDFBF7D8FAB4
:1054E000FFF708FFFFF7CEFF23781BB1FDF70CFC99
:1054F000002323700D4B1B78013B032B05D8DFE8FD
:1055000003F002090C0FFBF775F90A20BDE8104003
:105510000CF02EBBFEF764FEF7E7FBF729FFF4E77C
:10552000FFF710F8F1E700BF68170020A81200206D
:1055300030B5124B124C85B0054601210D20197073
:105540000CF0FEFB0F4920460BF0D4FE294601A8C3
:1055500003F08AFE01A920460BF0DAFE01A80CF048
:1055600047F8094901A80CF08EF801A8FCF76AFE7B
:1055700001A80CF03DF805B030BD00BF911200202D
:105580007C270020E7840600FE84060030B50D4B22
:105590000D4C85B0054600210D2019700CF0D0FB94
:1055A0000A4920460BF0A6FE294601A803F05CFE3E
:1055B00001A920460BF0ACFE01A80CF019F805B0CB
:1055C00030BD00BF911200207C2700205A8C0600BD
:1055D00010B5074809F0EAFD041E07DD224605491B
:1055E000034809F0F5FD044B64101C6010BD00BFBA
:1055F000C0250020481300204817002070472DE9DF
:10560000F041804617461C460E4629B3531EF92B1F
:1056100022D82068257903682946DB6A98472068E4
:10562000036841461B689847206803685B6B98478E
:1056300090B9206803683A462946DB6B984735469F
:10564000C7B2AB1B9BB29F420AD9206803685B6953
:10565000984705F8010BF4E74FF0FF30BDE8F08103
:105660000020FBE7F8B5074616461C460D46D9B1A3
:10567000531EF92B18D8206821790368DB6A9847F4
:105680002068036839461B689847206803683246DB
:105690005B6829469847206803685B6B9847003031
:1056A00018BF01204042F8BD4FF0FF30FBE70B6808
:1056B00003604B6843608B6883607047F0B50F46AA
:1056C000B0F85E118BB016461D46D9B3C1F1070480
:1056D0000C2303FB04040139B4F8C431ADF81030D5
:1056E000B4F8C631ADF81230B4F8C831ADF81430A2
:1056F000A0F85E110020BDF912109FED157ABDF9DA
:105700001430494207EE901AF8EEE77ABDF910100E
:10571000C7EE876A4942B0FA80F0400907EE901A56
:10572000F8EEE77AC7ED006AC7EE876A07EE903AAF
:10573000F8EEE77AC6ED006AC7EE876AC5ED006A43
:105740000BB0F0BD00F1380101A801F0C3F9D2E7B8
:105750006F128341F0B50F46B0F860118BB016465A
:105760001D46D9B3C1F107040C2303FB040401391E
:10577000B4F86431ADF80430B4F86631ADF80630F1
:10578000B4F86831ADF80830A0F860110020BDF918
:1057900006109FED157A4B4207EE903AF8EEE77A45
:1057A000BDF9041067EE877A4B42C7ED007A07EE29
:1057B000903AF8EEE77ABDF9083067EE877AB0FAEA
:1057C00080F0C6ED007A07EE903AF8EEE77A4009ED
:1057D00067EE877AC5ED007A0BB0F0BD00F13801B5
:1057E00001A801F077F9D2E70000003900000000BD
:1057F00000B58FB00EAB002203F8342D012100F16B
:105800003802184602F09AFA9DF8063001209840B6
:105810004AF0A8FC04A3D3E900234AF00DFD4AF0A6
:10582000DBFF0FB05DF804FBF6285C8FC2F5D83FB4
:1058300010B58EB00EAB012403F8344D00F13802E0
:105840002146184602F07AFA9DF8060004FA00F0A4
:105850004AF088FC04A3D3E900234AF0EDFC4AF0A7
:10586000BBFF0EB010BD00BFF6285C8FC2F5D83F5D
:1058700073B50E4600F1A00168461C46154602F0BD
:105880009DFDBDF9003007EE903ABDF90230F8EE0B
:10589000E77AB0FA80F0C6ED007A07EE903ABDF9EB
:1058A0000430F8EEE77A4009C5ED007A07EE903A49
:1058B000F8EEE77AC4ED007A02B070BD10B5044688
:1058C000A03002F0C1FDB4F8C80000F4807010BD33
:1058D0007FB500F1A00101A802F031FD9DF806207E
:1058E000072A9BBF034B03EB82030020186807B015
:1058F0005DF804FBBC9F060030B59FB04FF4807389
:105900004FF48470ADF800304FF00113012540F2E0
:1059100001120193ADF812000023ADF8460001A872
:105920000C46ADF808508DF81030ADF814208DF805
:105930004450ADF848208DF84A3000F0D8FF80B9C7
:1059400022462946042001F01BFE50B922460221BE
:1059500004A802F08DF820B922460221684601F021
:1059600055F81FB030BD7FB5002301A88DF8053074
:1059700002F0B2FC07B05DF804FB0CF0FBB808B510
:1059800001210D200CF098F900210D200CF0D8F920
:1059900064200CF0EDF801210D200CF0D1F9642009
:1059A0000CF0E6F8F0E7006870470022C26070472C
:1059B0000C307047CB68C3600BB15B681847704709
:1059C000C3680BB19B681847704773B504460D4612
:1059D00041680DF1060000F0FCFFBDF806309B05A4
:1059E00002D4002002B070BD7DB3012D33D06168B8
:1059F0000DF1060004F1080501F091FD61682846EB
:105A000001F028F90028ECD1BDF8063004F18C062D
:105A1000602B28BF60230C223146B3FBF2F304F164
:105A20009400A4F88C30A4F88E30A4F890302A4664
:105A3000636801F06FF963682A46314604F1F400A7
:105A400001F072FBB4F88C00CCE7B4F89030002B76
:105A5000CDD00120C6E7B4F88E30002BC7D0284641
:105A6000C0E713B590F8D03004462BB10021D030F8
:105A7000FFF7ABFF02B010BD00F138010DF10600D9
:105A800000F0A7FFBDF80630B4F8CC001843C3F30C
:105A90000E03A4F8CC30C00BECE713B590F8D0306F
:105AA00004462BB10121D030FFF78FFF02B010BDAB
:105AB00000F138010DF1060000F08BFFBDF8063053
:105AC000B4F8CC00184323F48043A4F8CC30C0F3DE
:105AD0008030EBE730B5C46887B00D46002C00F08D
